S01000004C6162365F6578322E7372656361
S113000053C000006EC000006CC000006AC0000055
S113001068C0000066C0000064C0000062C0000048
S113002060C000005EC000005CC000005AC0000058
S113003058C000007BC0000054C0000052C0000043
S113004050C000004EC000004CC000004AC0000078
S113005048C0000046C0000044C0000042C0000088
S113006040C000003EC000003CC000003AC0000098
S113007038C0000036C0000034C0000032C00000A8
S113008030C000002EC000002CC00000F600FA00B2
S113009004010A0114011A012401330137013B014F
S11300A03F01430147014B0111241FBECFEFD0E4B0
S11300B0DEBFCDBF11E0A0E0B1E0E0EEF2E000E091
S11300C00BBF02C007900D92A430B107D9F721E00D
S11300D0A4E0B1E001C01D92AC30B207E1F7DFD07B
S11300E0FDC08ECF8BE08093810086E490E09093F6
S11300F089008093880082E080936F0010928500CD
S1130100109284008091000190910101A09102015C
S1130110B09103018093040190930501A09306011B
S1130120B09307018FB780688FBF08951F920F9215
S11301300FB60F9211248F939F93AF93BF93809127
S1130140040190910501A0910601B0910701019766
S1130150A109B1098093040190930501A0930601BC
S1130160B0930701892B8A2B8B2B99F481E0809320
S113017008018091000190910101A0910201B091C8
S113018003018093040190930501A0930601B093A9
S11301900701BF91AF919F918F910F900FBE0F9068
S11301A01F901895609300017093010180930201E0
S11301B090930301609304017093050180930601F9
S11301C090930701089580B191E0282F217080FD5C
S11301D090E090930B01E0910A018E2F90E087301C
S11301E09105C0F5FC01EA5BFF4F6FC081E080938D
S11301F00A013DC0211104C082E080930A013BC082
S113020083E080930A013BC0211135C081E08093D3
S11302100A012DC0211104C084E080930A0133C077
S113022085E080930A0133C021112DC083E08093BF
S11302300A0125C0211104C086E080930A012BC065
S113024081E080930A0113C0211125C085E08093C9
S11302500A011DC08E2F90E087309105F8F4FC014F
S1130260E35BFF4F32C081E080930901089581E090
S113027080930901089581E080930901089582E043
S113028080930901089582E080930901089584E030
S113029080930901089584E08093090108958FEF04
S11302A084B915B811B882B96CE370E080E090E0CD
S11302B079DF18DF88DF809108018823E1F3109249
S11302C008018091090185B9F5CFEE0FFF1F0024C5
S11302D0001C0BBE0790F691E02D0994F894FFCF13
S10702E00100000015
S9030000FC
